:020000040800F2
:1000000000000220CD1B0008111C0008111C000874
:10001000111C0008111C0008111C00080000000041
:10002000000000000000000000000000111C00089B
:10003000111C000800000000111C0008B11B000882
:10004000111C0008111C0008111C0008111C0008DC
:10005000111C0008111C0008111C0008111C0008CC
:10006000111C0008111C0008111C0008111C0008BC
:10007000111C0008111C0008111C0008111C0008AC
:10008000111C0008111C0008111C0008111C00089C
:10009000111C0008111C0008111C0008111C00088C
:1000A000111C0008111C0008111C0008111C00087C
:1000B000111C0008111C0008111C0008111C00086C
:1000C000111C0008111C0008111C0008111C00085C
:1000D000111C0008111C0008491A0008111C000816
:1000E000111C0008111C0008111C0008111C00083C
:1000F000111C0008111C0008111C0008111C00082C
:10010000111C0008111C0008111C0008111C00081B
:10011000111C0008111C0008111C0008111C00080B
:10012000111C0008111C0008111C0008111C0008FB
:10013000111C0008111C0008111C0008111C0008EB
:10014000111C0008111C0008111C0008111C0008DB
:10015000111C0008111C0008111C0008111C0008CB
:10016000111C0008111C0008111C0008111C0008BB
:10017000111C0008111C0008111C0008111C0008AB
:08018000111C0008111C00080D
:0801880000000000000000006F
:1001900010B5054C237833B9044B13B10448AFF3C1
:1001A00000800123237010BDA0000020000000008B
:1001B000D443000808B5034B1BB103490348AFF310
:1001C000008008BD00000000A4000020D443000807
:1001D00001F0FF01102A2BDB10F0070F08D010F8F8
:1001E000013B013A8B422DD010F0070F42B3F6D1FC
:1001F000F0B441EA012141EA014122F007047FF015
:1002000000070023F0E80256083C85EA010586EA6B
:10021000010685FA47F5A3FA87F586FA47F6A5FAA7
:1002200087F68EB9EED1F0BC01F0FF0102F00702B3
:1002300032B110F8013B013A83EA010313B1F8D15E
:100240000020704701387047002D06BF354603383F
:10025000073815F0010F07D1013015F4807F02BF78
:10026000013015F4C03F0130F0BC0138704700BFC9
:10027000034613F8012B002AFBD1181A01387047E6
:1002800080B485B000AF786039600F4BFB60FB68CD
:100290001B680E4A934201D000230EE07B68002BBE
:1002A00003D0FB685A687B681A603B68002B03D058
:1002B000FB689A683B681A60012318461437BD46EC
:1002C0005DF8047B704700BF00C000084D3C2B1A4E
:1002D00080B400AFBFF34F8F00BF074BDB6803F460
:1002E000E0620549054B1343CB60BFF34F8F00BF5E
:1002F00000BF00BFFCE700BF00ED00E00400FA050E
:1003000080B582B000AF78603960054B1B683A68F1
:100310007968184603F00BFB00BF0837BD4680BD67
:100320006413002080B483B000AF78607B6803F56D
:100330008053002283F89E207B6803F580530022BF
:10034000A3F888207B6803F580530022A3F89C2043
:1003500000BF0C37BD465DF8047B704780B586B0A2
:1003600004AF194B1B687B607B68B3F1FF3F0BD177
:10037000164B019386230093154B164A1649042009
:1003800002F0B2FE00231BE04FF44032134900207C
:1003900002F0F2FB38603B6803937B680293104BDA
:1003A00001938E2300930A4B0A4A0B49042002F062
:1003B0009BFE3A687B689A420CBF01230023DBB2A4
:1003C00018460837BD4680BD00C80008084400082C
:1003D000744D0008EC4300080044000800000408C5
:1003E0002444000880B584B000AF03463960FB7137
:1003F0001346BB80AA23FB730023BB60BB6807F1D5
:100400000F010122184602F0B7FB0346BB60BB6830
:10041000F91D0122184602F0AFFB0346BB60BB6822
:10042000391D0222184602F0A7FB0346BB60BB68D9
:10043000BA883968184602F09FFB0346BB6007F193
:100440000F030121184601F0BBFAFB1D01211846DC
:1004500001F0B6FA3B1D0221184601F0B1FABB8843
:100460001946386801F0ACFA07F108030421184670
:1004700001F0A6FA00BF1037BD4680BD80B582B03E
:1004800000AF03460A46FB711346BB71B91DFB79E9
:1004900001221846FFF7A6FF00BF0837BD4680BD02
:1004A00080B58AB004AF78600B467B80294B0193FE
:1004B000AB230093284B294A2949032002F014FE5C
:1004C0007B687B617B88012B12D07B8801220392A1
:1004D0000293244B0193AF2300931F4B1F4A2049E3
:1004E000022002F001FE06211020FFF7C7FF2DE0D9
:1004F0007B691B7802931C4B0193B3230093164B2B
:10050000164A1749032002F0EFFD7B691B78002B88
:1005100002D0012B0AD014E001233B8207F1100323
:10052000022219461020FFF75DFF0FE04FF48053C1
:10053000FB8107F10E03022219461020FFF752FF3C
:1005400004E006211020FFF799FF00BF1837BD46D1
:1005500080BD00BF4C440008844D0008EC430008F7
:1005600000440008544400087044000880B584B07A
:1005700002AF78600B467B80094B0193CC2300933C
:10058000084B094A0649032002F0AEFD0021112064
:10059000FFF774FF00F0B4FD00BF0837BD4680BD13
:1005A000004400089C4D0008EC43000880B584B06E
:1005B00002AF78600B467B80094B0193D4230093F4
:1005C000084B094A0949032002F08EFD00211F2033
:1005D000FFF754FFFFF77CFE00BF0837BD4680BD24
:1005E00080440008B04D0008EC43000800440008B7
:1005F00080B588B004AF78600B467B80424B019396
:10060000DB230093414B424A4249032002F06CFD38
:100610007B68FB607B88082B12D07B8808220392C2
:1006200002933D4B0193DF230093384B384A3949FD
:10063000022002F059FD06212020FFF71FFF5FE096
:10064000FB681B68B3F1006F16D3FB681B68334A65
:10065000934211D2FB681B680293314B0193E5234F
:1006600000932A4B2A4A2B49022002F03DFDFF212C
:100670002020FFF703FF43E0FB681B68FA6852681D
:1006800003920293274B0193E92300931F4B204AC7
:100690002049032002F028FD00F06AFF01F034F841
:1006A0000346FB7200F07EFFFB7A002B1AD01E4B34
:1006B0000193F1230093154B154A1649032002F0CC
:1006C00013FD00F055FFFB681A68FB685B6819466C
:1006D000104600F081FF00F065FF00212020FFF7A9
:1006E000CDFE0DE0114B0193FA230093074B084A0E
:1006F0000849022002F0F8FCFF212020FFF7BEFE8F
:100700001037BD4680BD00BF88440008C44D0008B6
:10071000EC430008004400089044000800C00008B2
:10072000A8440008C8440008E0440008F444000855
:1007300080B588B004AF78600B467B80354B019361
:1007400040F201130093344B344A3549032002F040
:10075000CBFC7B68FB607A88FB685B6808339A4255
:1007600015D07B88FA6852680832039202932D4BA9
:10077000019340F205130093274B284A2849022091
:1007800002F0B2FC06212220FFF778FE3FE0FB6872
:100790001B68B3F1006F17D3FB681B68224A9342B2
:1007A00012D2FB681B680293204B01934FF48673AF
:1007B0000093194B194A1A49022002F095FCFF21B7
:1007C0002220FFF75BFE22E0FB681B68FA68526894
:1007D00003920293164B019340F2111300930E4BB8
:1007E0000E4A0F49032002F07FFC00F0C1FEFB68B7
:1007F0001868FB6803F10801FB685B681A4600F0A3
:100800004BFF00F0CFFE00212220FFF737FE10370C
:10081000BD4680BD04450008D84D0008EC430008E3
:10082000004400080C45000800C000082C450008E2
:100830004845000880B588B004AF78600B467B80DF
:100840003B4B01934FF48E7300933A4B3A4A3B492A
:10085000032002F049FC7B68FB607B880C2B13D0E3
:100860007B880C2203920293354B01934FF49073D3
:100870000093304B304A3149022002F035FC06210A
:100880002320FFF7FBFD4FE0FB681B68FA68526806
:10089000039202932B4B01934FF492730093254BD9
:1008A000254A2649032002F01FFCFB681B681946F5
:1008B000FB685B681A46002002F05EF9B860FB68CE
:1008C0009B680293204B019340F227130093194B2E
:1008D000194A1A49032002F007FCFB689B68BA68B2
:1008E0009A4207D1194B01221A7000212320FFF7E9
:1008F000C5FD19E005212320FFF7C0FD134B0022A1
:100900001A70FFF72BFD0346002B0DD0104B0193FF
:1009100040F233130093074B074A0849022002F0C4
:10092000E3FB0C4B01221A701037BD4680BD00BF9F
:1009300068450008EC4D0008EC430008004400083E
:10094000704500088C450008A4450008BD00002043
:10095000B4450008BC00002080B586B004AF7860C4
:100960007B681B781A467B685B88039302923E4B38
:1009700001934FF49E7300933C4B3D4A3D49032045
:1009800002F0B2FB7B681B78103B132B66D801A2E8
:1009900052F823F0E5090008F90900085D0A00088B
:1009A0005D0A00085D0A00085D0A00085D0A00088B
:1009B0005D0A00085D0A00085D0A00085D0A00087B
:1009C0005D0A00085D0A00085D0A00085D0A00086B
:1009D0000D0A0008210A00085D0A0008350A00080F
:1009E000490A00087B6803F108027B685B881946A6
:1009F0001046FFF755FD32E07B6803F108027B6883
:100A00005B8819461046FFF7B1FD28E07B6803F1CB
:100A100008027B685B8819461046FFF7C7FD1EE099
:100A20007B6803F108027B685B8819461046FFF774
:100A3000DFFD14E07B6803F108027B685B881946E0
:100A40001046FFF775FE0AE07B6803F108027B6839
:100A50005B8819461046FFF7EDFE00E000BF00BFBF
:100A60000837BD4680BD00BFE0450008044E0008C1
:100A7000EC4300080044000880B584B000AF786003
:100A8000AA23FB720023FB6007F10B030122194626
:100A9000F86802F071F8F8607B6801221946F8687E
:100AA00002F06AF8F8607B68023302221946F8689F
:100AB00002F062F8F8607B6803F108017B685B88EC
:100AC0001A46F86802F058F8F8607B685B68FA68C4
:100AD0009A420CBF01230023DBB218461037BD46F3
:100AE00080BD000080B588B002AF78600B46FB7017
:100AF0000023FB757B6803F584530C333B617B68F3
:100B0000FB603B691B8A5A1C91B23A6911821946F3
:100B10003B69FA785A547B6803F5805393F89E300A
:100B2000042B00F2EC8001A252F823F0410B0008E4
:100B3000750B0008A70B0008190C0008890C0008A9
:100B4000714B019340F26D130093704B704A7149E1
:100B5000042002F0C9FA3B6900221A823B691B7823
:100B6000AA2B40F0C5807B6803F58053012283F8EF
:100B70009E20BDE0684B019340F277130093634BD6
:100B8000634A6449042002F0AFFA3B6900221A82EA
:100B90003B691A78FB681A707B6803F58053022260
:100BA00083F89E20ABE05D4B019340F27F130093EE
:100BB000564B574A5749042002F096FA3B691B8A64
:100BC000022B40F097803B6900221A823B691B8808
:100BD0007B817B89B3F5845F14D8FB687A895A805E
:100BE000FB685B88002B06D17B6803F580530422E9
:100BF00083F89E207EE07B6803F58053032283F810
:100C00009E2077E0FB681B7802211846FFF736FC30
:100C10007868FFF787FB6DE03B6900221A82FB686A
:100C200003F58053B3F88820FB685B889A4221D291
:100C3000FB6803F58053B3F888305A1C91B2FA6808
:100C400002F58052A2F8881019463B691A78FB68B1
:100C50000B441A72FB6803F58053B3F88820FB68D5
:100C60005B889A4248D17B6803F58053042283F85D
:100C70009E2041E0FB681B7802211846FFF7FEFB2F
:100C80007868FFF74FFB37E0254B019340F2AB1339
:100C900000931E4B1E4A1F49042002F025FA3B69AF
:100CA0001B8A042B2AD13B6900221A823B691A68ED
:100CB000FB685A60F868FFF7DFFE0346002B02D09E
:100CC0000123FB751AE0174B01934FF4DB7300937C
:100CD0000E4B0F4A0F49022002F006FAFB681B7800
:100CE00005211846FFF7CAFB7868FFF71BFB05E0F4
:100CF00000BF04E000BF02E000BF00E000BFFB7DDA
:100D000018461837BD4680BD00460008144E00083E
:100D1000EC43000800440008084600081446000898
:100D2000204600082846000880B58CB004AF7860E3
:100D30000023FB7700237B614FF400719E4802F093
:100D40007DFD03469D4A13609D4800F06DFE00F056
:100D500023FF78619B4B00221A70FFF7FFFA0346CE
:100D6000FB7400F08BF90346BB74BB7C83F001037A
:100D7000DBB2002B17D0FB7C002B14D0924B0193DD
:100D800040F2D1130093914B914A9249022002F014
:100D9000ABF9914B01221A7000F002FB00F0FCFE4F
:100DA00003468E4A13608C4B1B78DBB2002B5DD060
:100DB00000F0F2FE0246894B1B68D31A40F6B832A7
:100DC00093420FD9864B01934FF4EE7300937F4B00
:100DD0007F4A8049032002F087F900F0DDFE0346D8
:100DE0007E4A136000F090FA0346002B00F09480D6
:100DF00000F0D2FEF86033E000F0CEFE0246FB6861
:100E0000D31A40F6B73293422AD9764B019340F277
:100E1000E71300936D4B6E4A6E49032002F064F9AC
:100E200000F09CF90346002B0FD06F4B01934FF459
:100E3000F5730093654B664A6649032002F054F946
:100E400000F008FBFFF744FA0AE0684B01934FF407
:100E5000F87300935D4B5E4A5E49022002F044F94C
:100E600000F052FA0346002BC6D155E07B68002BF8
:100E700052D0FB7F83F00103DBB2002B4CD0BB7C54
:100E8000002B49D000F088FE02467B69D31ABB6173
:100E9000574B1B68002B12D17B680293554B019373
:100EA0004FF4FE730093494B494A4A49032002F02C
:100EB0001BF94F4B01221A600123BB611FE0BB6984
:100EC0004D4AA2FB03239A09494B1B684A49A1FBDF
:100ED00003139B099A4212D0BB69474AA2FB032322
:100EE0009B097A68D31A0293424B019340F2022382
:100EF0000093364B364A3749032002F0F5F87B68F9
:100F00004FF47A7202FB03F3BA699A4201D900F0F6
:100F1000F7F8374ABB69136000F0F6F90346002B77
:100F20001DD00A2000F020FE00F0EEF90346002B51
:100F300015D002E0282000F017FE00F0E5F9034686
:100F4000002BF7D12D4B019340F2162300931F4B3A
:100F50001F4A2049022002F0C7F8FFF7B9F9174BE2
:100F60001B68184602F0ADFC0346002B4ED0244B04
:100F700003F58053B3F89C30002B05D100F00CFE34
:100F80000346204A136060E000F006FE02461D4B57
:100F90001B68D31AB3F5FA7F57D91B4B019340F264
:100FA00025230093094B0A4A0A49022002F09CF8C3
:100FB0001348FFF7B7F9F6E6C000002064130020DD
:100FC00001030008BD00002038460008244E000838
:100FD000EC43000800440008BC0000206813002017
:100FE000684600089C460008BC460008D446000835
:100FF0006C130020E4460008D34D6210F846000848
:10100000C00200206013002010470008104B1B682E
:1010100007F10B021146184602F0ADFCFB7A1946A7
:101020000C48FFF75FFD0346002B3FF4BCAE0948B8
:10103000FFF792FC0748FFF775F90123FB7700F0F3
:10104000ABFD0346044A1360ADE600BFABE600BF4C
:1010500064130020C00200206013002080B500AFA0
:1010600001F06CFE00F014FD034B00221A6072B612
:1010700000BF00BF80BD00BF10E000E080B58AB0B7
:1010800004AF3A1D07F1080311461846FFF7F8F8B8
:101090000346FB75FB7D83F00103DBB2002B01D01F
:1010A00000231EE0114B3B613B69BA6819460020E2
:1010B00001F062FDF8607B68FA689A4210D07B68A4
:1010C0000393FB6802930A4B01934FF4137300934D
:1010D000084B094A0949022002F006F8002300E003
:1010E000012318461837BD4680BD00BF0000010827
:1010F0001C470008304E0008EC430008004400087C
:1011000080B588B004AF104BFB60FB681B68BB6008
:10111000FB6804331B687B607B683B60FB68029361
:101120000A4B019340F25B230093094B094A0A4999
:10113000032001F0D9FFFFF791FF3B68984700BFFC
:101140001037BD4680BD00BF0000010838470008C9
:10115000444E0008EC4300080044000880B58AB003
:1011600004AF514B3B61514B03934F4B0293504B98
:10117000019340F2652300934E4B4F4A4F490320A1
:1011800001F0B2FF00F0F4F94FF44031464800F0AE
:1011900023FA00237B6126E07B6903F1006303F5FA
:1011A00080231B687B607B6903F1006303F5803358
:1011B0007968184600F060FF0346092B10D07B6960
:1011C00003F1006303F5803302933D4B019340F23A
:1011D00072230093374B384A3849022001F084FFCC
:1011E0007B6904337B617B69B3F5403FD4D900F060
:1011F000D9F9344B019340F2772300932D4B2E4ABB
:101200002E49032001F070FF4FF4403226490020A0
:1012100001F0B2FCF860FB6802932B4B019340F2A3
:101220007B230093234B244A2449042001F05CFFD4
:101230004FF440321D49002001F09EFCB860BB68AD
:101240000293224B019340F27F230093194B1A4AD9
:101250001A49042001F048FFFA68BB689A420ED18F
:10126000FB6802931A4B01934FF421730093114BC7
:10127000114A1249032001F037FF01230FE0BB6838
:101280000393FB680293134B019340F2892300936D
:10129000084B094A0949022001F026FF002318469D
:1012A0001837BD4680BD00BF0000010800000408DB
:1012B00058470008584E0008EC4300080044000856
:1012C00080470008A0470008B4470008C44700084A
:1012D000D84700080448000880B582B000AF00235A
:1012E0003B710023BB7101233B600123FB7103238E
:1012F0007B713B461946034800F048FF00BF0837A2
:10130000BD4680BD0010024080B500AF01210548F8
:1013100000F0CBFF0346002B0CBF01230023DBB200
:10132000184680BD0010024080B582B000AF012396
:101330003B710023BB7160233B600123FB710223DF
:101340007B713B461946034800F020FF00BF083779
:10135000BD4680BD0010024080B582B000AF03469C
:10136000FB710D4AFB7913700B4B1B7883F0010363
:10137000DBB21A462021094800F0B1FF064B1B786A
:1013800083F00103DBB21A464021044800F0A7FFB6
:1013900000BF0837BD4680BD70130020001002401A
:1013A00080B500AF034B01221A700120FFF7D4FF74
:1013B00000BF80BD7013002080B500AF034B00223A
:1013C0001A700020FFF7C8FF00BF80BD7013002017
:1013D00080B500AF00F054FC0121012001F090F82D
:1013E0000121022001F08CF80121042001F088F88D
:1013F0000121082001F084F80121102001F080F87B
:1014000001214FF4003001F09BF80121102001F080
:10141000B7F800BF80BD80B500AFFFF775FF03468A
:10142000002B06D0282000F09FFBFFF76DFF03463E
:1014300000E00023184680BD80B500AF02E0142014
:1014400000F092FBFFF760FF0346002BF7D100BFCF
:1014500000BF80BD80B500AF02E0142000F084FB27
:10146000FFF752FF0346002BF7D100BF00BF80BD3E
:1014700080B584B002AFFFF7ABFF00F0FFF901F0D9
:101480002DFCFF21002001F0DBFC0721012001F0F1
:10149000D7FC0721022001F0D3FC0721032001F033
:1014A000CFFC0721042001F0CBFC0721052001F02F
:1014B000C7FC01F059FCFFF70FFF00F043FB00F001
:1014C0002DFAFFF731FFFFF777FF0023FB71FFF7DE
:1014D000A2FF0346002B0CD01A4B01933D2300932F
:1014E000194B1A4A1A49022001F0FEFD0123FB7133
:1014F00013E0FFF7C3FD034683F00103DBB2002BCB
:101500000BD0144B0193422300930F4B0F4A104909
:10151000022001F0E9FD0123FB71FB79002B03D0D0
:10152000FFF73EFFFFF788FFFB79002B01D0002378
:1015300000E003231846FFF7F7FB0023184608379F
:10154000BD4680BD58480008684E00084448000861
:10155000504800087C48000880B483B000AF786031
:101560004FF0FF3318460C37BD465DF8047B7047DB
:1015700080B582B002AF074B019322230093064B44
:10158000064A0749032001F0AFFD00F0EDFC00BF63
:10159000BD4680BDC0480008D04E0008A8480008DD
:1015A000B848000880B582B002AF074B01932823EA
:1015B0000093064B064A0749032001F095FD00F011
:1015C000EBFC00BFBD4680BDD0480008E44E0008DB
:1015D000A8480008B848000880B58AB006AF78600F
:1015E00039604FF00063FB600023BB603FE0FA68A6
:1015F0007B689A4230D37A683B681344FA689A420F
:101600002AD21F4ABB68DB0013445B680493FB6863
:101610000393BB6802931B4B0193342300931A4B33
:101620001A4A1B49032001F05FFD154ABB6852F8B6
:1016300033300221184600F0BFFC0346092B0BD0C3
:10164000BB680293134B0193372300930E4B0F4A51
:101650000F49022001F048FD094ABB68DB00134432
:101660005B68FA681344FB60BB680133BB60BB680E
:101670000B2BBCD900BF00BF1037BD4680BD00BFDB
:10168000704E0008DC480008F84E0008A848000822
:10169000B84800080449000880B58AB004AFF86073
:1016A000B9607A6000237B611DE0FA687B69D0181D
:1016B000BA687B6913441B68194600F0DDFC0346D9
:1016C000092B0DD0FA687B69134402930A4B0193EE
:1016D00046230093094B0A4A0A49022001F004FDFF
:1016E0007B6904337B617A697B689A42DDD300BFF2
:1016F00000BF1837BD4680BD1C4900080C4F0008CC
:10170000A8480008B848000880B58AB004AF4D4B1F
:101710003B614D4B03934D4B02934D4B01934F2334
:1017200000934C4B4C4A4D49032001F0DDFC4FF433
:1017300040314648FFF750FF00237B6125E07B697D
:1017400003F1006303F580331B687B607B6903F161
:10175000006303F580237968184600F08DFC03468A
:10176000092B0FD07B6903F1006303F580230293FB
:101770003B4B01935B230093364B374A374902209A
:1017800001F0B2FC7B6904337B617B69B3F5403FB8
:10179000D5D9344B0193612300932E4B2E4A2F4908
:1017A000032001F0A1FC4FF440322649002001F053
:1017B000E3F9F860FB6802932B4B019365230093D8
:1017C000244B254A2549042001F08EFC4FF4403279
:1017D0001E49002001F0D0F9B860BB680293234B8A
:1017E0000193692300931B4B1B4A1C49042001F001
:1017F0007BFCFA68BB689A4211D1FB6802931C4BD0
:1018000001936E230093134B134A1449032001F0F4
:101810006BFCF968174800F02FFC01230EE0BB6851
:101820000393FB680293144B019374230093094BB9
:10183000094A0A49022001F057FC002318461837CC
:10184000BD4680BD00000108000007080000040834
:101850003C490008204F0008A8480008B848000884
:101860001C490008644900087849000888490008B4
:101870009C49000800C80008C849000880B588B025
:1018800000AF07220921234800F042FD07220A2168
:10189000204800F03DFD4FF4C063BB6102233B775D
:1018A0000023BB770123FB7702237B7707F1180323
:1018B0001946184800F06AFC4FF4E133BB6000237E
:1018C000BB810023FB8100233B820C237B8200230E
:1018D000BB8207F1080319460F4800F03DFF25239E
:1018E0003B7100237B710023BB710123FB713B1D06
:1018F000184600F0D7FA012240F22551064801F0BF
:1019000027F80121044800F0E1FF00BF2037BD4661
:1019100080BD00BF000002400010014080B588B0CB
:1019200000AF07220221244800F0F2FC0722032125
:10193000214800F0EDFC02233B770023BB770C230A
:10194000BB610123FB7703237B7707F1180319465B
:10195000194800F01BFC4FF4E133BB600023BB824D
:101960000C237B8200233B820023FB810023BB816D
:1019700007F108031946114800F0EEFE4FF4A0608D
:1019800000F07CFA26233B710123FB7101237B715C
:101990000123BB713B1D184600F084FA012240F27E
:1019A0002551064800F0D4FF0121044800F08EFFC5
:1019B00000BF2037BD4680BD00000240004400400B
:1019C00080B584B000AF786039604021154801F0DF
:1019D00023F80023FB6013E000BF8021114800F0D2
:1019E000FFFF0346002BF8D07A68FB6813441B788E
:1019F0009BB219460B4800F089FFFB680133FB607E
:101A0000FA683B689A42E7D300BF4021054800F0DE
:101A1000E7FF0346002BF8D000BF00BF1037BD46DC
:101A200080BD00BF0044004080B483B000AF786048
:101A3000044A7B68136000BF0C37BD465DF8047B29
:101A4000704700BF7413002080B582B000AF40F231
:101A500025510D4800F0F1FF0346002B0FD00A4836
:101A600000F066FF0346DBB2FB71084B1B68002BDE
:101A700005D0064B1B68FA1D01211046984700BF90
:101A80000837BD4680BD00BF0044004074130020ED
:101A900080B500AF0021044800F018FF024800F0B4
:101AA000CFFD00BF80BD00BF0044004080B483B0C4
:101AB00000AF03463960FB7197F90730002B0BDA52
:101AC0003B68DAB20C49FB7903F00F03043B1201C7
:101AD000D2B20B441A7609E03B68DAB2074997F9AB
:101AE00007301201D2B20B4483F8002300BF0C3739
:101AF000BD465DF8047B704700ED00E000E100E0CA
:101B000080B582B000AF78607B68013BB3F1807F25
:101B100001D301230FE00A4A7B68013B53600F2188
:101B20004FF0FF30FFF7C2FF054B00229A60044BD5
:101B300007221A60002318460837BD4680BD00BF43
:101B400010E000E080B500AF054B1B68054AA2FB22
:101B500003239B091846FFF7D3FF00BF80BD00BFDA
:101B600000000020D34D621080B485B000AF7860D3
:101B7000084B1B68FB6000BF064B1A68FB68D31A52
:101B80007A689A42F8D800BF00BF1437BD465DF8A6
:101B9000047B70477813002080B400AF034B1B68B0
:101BA0001846BD465DF8047B704700BF78130020DF
:101BB00080B400AF044B1B680133034A136000BFBD
:101BC000BD465DF8047B704778130020002103E0D8
:101BD0000A4B5B584350043109480A4B42189A4259
:101BE000F6D3094A02E0002342F8043B074B9A422D
:101BF000F9D300F00FF8FFF73BFC704700500008E6
:101C000000000020A0000020A0000020AC1C00204C
:101C1000FEE7000080B500AF164BD3F88830154AB8
:101C200043F47003C2F88830134B1B68124A43F028
:101C300001031360104B00229A600F4B1B680E4A81
:101C400023F0847323F4803313600B4B0B4A5A60E8
:101C5000094B1B68084A23F480231360064B0022BB
:101C6000DA6000F08FF8034B4FF000629A6000BF1B
:101C700080BD00BF00ED00E00038024010300024BD
:101C800080B487B000AF00233B6100237B61022357
:101C9000FB600023BB6002237B60354B9B6803F035
:101CA0000C033B613B69082B11D03B69082B44D8DE
:101CB0003B69002B03D03B69042B04D03DE02D4B46
:101CC0002D4A1A603DE02B4B2C4A1A6039E0284B14
:101CD0005B689B0D03F00103BB60254B5B6803F061
:101CE0003F037B60BB68002B0CD0244A7B68B2FBAF
:101CF000F3F31F4A52689209C2F3080202FB03F38E
:101D00007B610BE01C4A7B68B2FBF3F3184A526814
:101D10009209C2F3080202FB03F37B61144B5B6878
:101D20001B0C03F0030301335B00FB607A69FB6863
:101D3000B2FBF3F30F4A136003E00E4B0E4A1A6036
:101D400000BF0B4B9B681B0903F00F030C4AD35CCD
:101D5000DBB23B61074B1A683B6922FA03F3054A81
:101D6000136000BF1C37BD465DF8047B704700BFA1
:101D700000380240000000200024F40000127A0025
:101D80000400002080B483B000AF00237B600023F8
:101D90003B60364B1B68354A43F480331360334B4A
:101DA0001B6803F400333B607B6801337B603B6856
:101DB000002B03D17B68B3F5A04FF0D12B4B1B68F0
:101DC00003F40033002B02D001233B6001E0002329
:101DD0003B603B68012B42D1244B1B6C234A43F0F0
:101DE00080531364224B1B68214A43F44043136021
:101DF0001E4B1E4A9B6893601C4B9B681B4A43F416
:101E000000439360194B9B68184A43F4A0539360B6
:101E1000164B184A5A60154B1B68144A43F08073DE
:101E2000136000BF114B1B6803F00073002BF9D047
:101E3000114B40F205721A600C4B9B680B4A23F061
:101E400003039360094B9B68084A43F002039360C5
:101E500000BF064B9B6803F00C03082BF9D100BFB1
:101E60000C37BD465DF8047B704700BF0038024068
:101E70000070004008544007003C024080B483B02A
:101E800000AF7860064A7B6843F0BF6343F40033D9
:101E9000D36000BF0C37BD465DF8047B704700BFC0
:101EA00000ED00E080B485B000AF78600023FB73E4
:101EB0000023BB730F237B737B68DB78002B39D047
:101EC000274BDB68DB431B0ADBB203F00703FB7322
:101ED000FB7BC3F10403BB737A7BFB7B42FA03F306
:101EE0007B737B685B781A46BB7B02FA03F3FB7358
:101EF0007B689A787B7B1340DAB2FB7B1343FB73DE
:101F0000FB7B1B01FB73174A7B681B781344FA7B2E
:101F100083F800237B681B7803F01F0311497A685C
:101F200012785209D2B21046012202FA03F341F8A4
:101F300020300FE07B681B7803F01F0309497A68A3
:101F400012785209D2B2104601229A4000F12003C1
:101F500041F8232000BF1437BD465DF8047B70476D
:101F600000ED00E000E100E080B400AF074B1B692A
:101F7000002B05DA054B064A5A60044B054A5A60A5
:101F800000BFBD465DF8047B704700BF003C0240C7
:101F900023016745AB89EFCD80B400AF054B1B69CA
:101FA000044A43F00043136100BFBD465DF8047B63
:101FB000704700BF003C024080B584B000AF78603D
:101FC0000B46FB700023FB600923FB72FB78002BA0
:101FD00002D10023FB6010E0FB78012B03D14FF40A
:101FE0008073FB6009E0FB78022B03D14FF4007390
:101FF000FB6002E04FF44073FB6000F0AFF8034673
:10200000FB72FB7A092B2FD11A4B1B69194A23F457
:1020100040731361174B1A691649FB6813430B6130
:10202000144B1B69134A23F0F8031361114B1A690F
:102030007B6813430F4A43F0020313610D4B1B6986
:102040000C4A43F48033136100F088F80346FB72B6
:10205000084B1B69074A23F002031361054B1B69F8
:10206000044A23F0F8031361FB7A18461037BD4683
:1020700080BD00BF003C024080B584B000AF7860F6
:1020800039600923FB7300F069F80346FB73FB7B9F
:10209000092B1ED1114B1B69104A23F440731361A5
:1020A0000E4B1B690D4A43F4007313610B4B1B6904
:1020B0000A4A43F0010313617B683A681A6000F032
:1020C0004DF80346FB73054B1B69044A23F00103DB
:1020D0001361FB7B18461037BD4680BD003C0240B3
:1020E00080B483B000AF0923FB711B4BDB6803F4A2
:1020F0008033B3F5803F02D10123FB7125E0164BFD
:10210000DB6803F01003002B02D00623FB711CE0F8
:10211000114BDB6803F48073002B02D00223FB71A8
:1021200013E00D4BDB6803F0E003002B02D0072324
:10213000FB710AE0084BDB6803F00203002B02D0BE
:102140000823FB7101E00923FB71FB7918460C376A
:10215000BD465DF8047B7047003C024080B582B00C
:1021600000AF0923FB71FFF7BBFF0346FB7103E0E0
:10217000FFF7B6FF0346FB71FB79DBB2012BF7D00B
:10218000FB79DBB218460837BD4680BD80B487B006
:1021900000AF7860396000237B6100233B6100233E
:1021A000FB6000237B6176E001227B6902FA03F386
:1021B0003B613B681B683A691340FB60FA683B6906
:1021C0009A4265D17B681A687B695B00032101FA3A
:1021D00003F3DB431A407B681A607B681A683B682C
:1021E0001B7919467B695B0001FA03F31A437B688C
:1021F0001A603B681B79012B03D03B681B79022BCB
:102200002ED17B689A687B695B00032101FA03F396
:10221000DB431A407B689A607B689A683B685B790D
:1022200019467B695B0001FA03F31A437B689A60E5
:102230007B685A687B699BB2194601238B40DB435C
:102240001A407B685A607B685B683A6892791146ED
:102250007A6992B201FA02F292B21A437B685A602A
:102260007B68DA687B699BB25B00032101FA03F3A8
:10227000DB431A407B68DA607B68DA683B68DB79AD
:1022800019467B695B0001FA03F31A437B68DA6045
:102290007B6901337B617B690F2B85D900BF00BF50
:1022A0001C37BD465DF8047B704780B485B000AF35
:1022B00078600B467B800023FB737B681A697B8800
:1022C0001340002B02D00123FB7301E00023FB73BA
:1022D000FB7B18461437BD465DF8047B704780B41D
:1022E00083B000AF78600B467B8013467B707B78B1
:1022F000002B03D07A887B689A6103E07B881A04FC
:102300007B689A6100BF0C37BD465DF8047B70475F
:1023100080B485B000AF78600B467B8013467B703D
:102320000023FB600023BB607A787B8803F00703FF
:102330009B0002FA03F3FB607B88DB089BB21A4622
:102340007B68083253F822207B8803F007039B0048
:102350000F2101FA03F3DB437988C90889B20846E3
:1023600002EA03017B6800F1080243F822107B882F
:10237000DB089BB21A467B68083253F82230FA68B1
:102380001343BB607B88DB089BB21A467B6808322C
:10239000B96843F8221000BF1437BD465DF8047BCE
:1023A0007047000080B489B000AF78600023BB6143
:1023B00000237B610023FB6102233B610023FB6060
:1023C0000223BB604A4B9B6803F00C03BB61BB69F3
:1023D000082B11D0BB69082B44D8BB69002B03D054
:1023E000BB69042B04D03DE07B68424A1A603DE0A3
:1023F0007B68414A1A6039E03D4B5B689B0D03F0F6
:102400000103FB603A4B5B6803F03F03BB60FB6872
:10241000002B0CD0384ABB68B2FBF3F3344A526845
:102420009209C2F3080202FB03F3FB610BE0314A9D
:10243000BB68B2FBF3F32E4A52689209C2F308025A
:1024400002FB03F3FB612A4B5B681B0C03F00303E5
:1024500001335B003B61FA693B69B2FBF3F27B68D5
:102460001A6003E07B68234A1A6000BF204B9B6818
:1024700003F0F003BB61BB691B09BB611F4ABB6969
:1024800013441B78DBB27B617B681A687B69DA4096
:102490007B685A60164B9B6803F4E053BB61BB69D1
:1024A0009B0ABB61154ABB6913441B78DBB27B6195
:1024B0007B685A687B69DA407B689A600C4B9B6842
:1024C00003F46043BB61BB695B0BBB610B4ABB6937
:1024D00013441B78DBB27B617B685A687B69DA4006
:1024E0007B68DA6000BF2437BD465DF8047B704727
:1024F000003802400024F40000127A00140000208A
:1025000080B483B000AF78600B46FB70FB78002B83
:1025100006D00A4B1A6B09497B6813430B6306E02C
:10252000064B1A6B7B68DB43044913400B6300BF07
:102530000C37BD465DF8047B704700BF0038024091
:1025400080B483B000AF78600B46FB70FB78002B43
:1025500006D00A4B1A6C09497B6813430B6406E0EA
:10256000064B1A6C7B68DB43044913400B6400BFC5
:102570000C37BD465DF8047B704700BF0038024051
:1025800080B483B000AF78600B46FB70FB78002B03
:1025900006D00A4B5A6C09497B6813434B6406E02A
:1025A000064B5A6C7B68DB43044913404B6400BF05
:1025B0000C37BD465DF8047B704700BF0038024011
:1025C00080B483B000AF78600B46FB70FB78002BC3
:1025D00006D00A4B1A6A09497B6813430B6206E06E
:1025E000064B1A6A7B68DB43044913400B6200BF49
:1025F0000C37BD465DF8047B704700BF00380240D1
:1026000080B483B000AF78600B46FB70FB78002B82
:1026100006D00A4B5A6A09497B6813434B6206E0AD
:10262000064B5A6A7B68DB43044913404B6200BF88
:102630000C37BD465DF8047B704700BF0038024090
:1026400080B582B000AF78607B683B4A934208D186
:1026500001211020FFF7D4FF00211020FFF7D0FF49
:1026600065E07B68354A93420AD101214FF400307E
:10267000FFF7A6FF00214FF40030FFF7A1FF56E05F
:102680007B682F4A93420AD101214FF48020FFF743
:1026900097FF00214FF48020FFF792FF47E07B680F
:1026A000284A93420AD101214FF40020FFF788FF06
:1026B00000214FF40020FFF783FF38E07B68224AB7
:1026C00093420AD101214FF48010FFF779FF0021D6
:1026D0004FF48010FFF774FF29E07B681B4A934298
:1026E00008D101212020FFF78BFF00212020FFF7D8
:1026F00087FF1CE07B68164A93420AD101214FF004
:102700008040FFF75DFF00214FF08040FFF758FF4A
:102710000DE07B680F4A934209D101214FF0004040
:10272000FFF74EFF00214FF00040FFF749FF00BFC9
:102730000837BD4680BD00BF001001400044004086
:1027400000480040004C0040005000400014014090
:1027500000780040007C004080B58AB000AF78600F
:10276000396000237B6200233B620023FB6100236E
:10277000BB617B681B8A9BB27B627B6A23F44053FC
:102780007B623B68DB881A467B6A13437B627B6A09
:102790009AB27B681A827B689B899BB27B627B6A58
:1027A00023F4B05323F00C037B623B689A883B68A8
:1027B0001B8913439AB23B685B8913439BB21A4649
:1027C0007B6A13437B627B6A9AB27B689A817B68DF
:1027D0009B8A9BB27B627B6A23F440737B623B687B
:1027E0009B891A467B6A13437B627B6A9AB27B6839
:1027F0009A8207F108031846FFF7D4FD7B68304A38
:10280000934203D07B682F4A934202D17B693B629B
:1028100001E03B693B627B689B899BB21BB2002B4A
:102820000CDA3A6A13469B0013449A001A443B6838
:102830001B685B00B2FBF3F3FB610BE03A6A1346E3
:102840009B0013449A001A443B681B689B00B2FB30
:10285000F3F3FB61FB691C4AA2FB03235B091B0129
:102860007B627B6A1B09642202FB03F3FA69D31AB9
:10287000BB617B689B899BB21BB2002B0CDABB69E6
:10288000DB003233104AA2FB03235B0903F007038A
:102890007A6A13437B620BE0BB691B0132330A4A3D
:1028A000A2FB03235B0903F00F037A6A13437B62E5
:1028B0007B6A9AB27B681A8100BF2837BD4680BD0B
:1028C00000100140001401401F85EB5180B483B01B
:1028D00000AF78600B46FB70FB78002B08D07B685C
:1028E0009B899BB243F400539AB27B689A8107E0BC
:1028F0007B689B899BB223F400539AB27B689A81D0
:1029000000BF0C37BD465DF8047B704780B483B0D0
:1029100000AF78600B467B807B88C3F308039AB2D4
:102920007B689A8000BF0C37BD465DF8047B70471A
:1029300080B483B000AF78607B689B889BB2C3F3A0
:1029400008039BB218460C37BD465DF8047B704700
:1029500080B487B000AF78600B467B8013467B70F5
:1029600000233B610023FB600023BB6000237B61ED
:102970007B687B617B88DBB25B09DBB23B617B8878
:1029800003F01F03FB600122FB6802FA03F3BB6044
:102990003B69012B03D17B690C337B6109E03B6907
:1029A000022B03D17B6910337B6102E07B69143316
:1029B0007B617B78002B06D07B6919687B69BA68DC
:1029C0000A431A6006E07B691968BB68DA437B69D1
:1029D0000A401A6000BF1C37BD465DF8047B704793
:1029E00080B485B000AF78600B467B800023FB731A
:1029F0007B681B889AB27B8813409BB2002B02D065
:102A00000123FB7301E00023FB73FB7B18461437A3
:102A1000BD465DF8047B704780B483B000AF78603A
:102A20000B467B807B88DB439AB27B681A8000BFB1
:102A30000C37BD465DF8047B704780B487B000AFAB
:102A400078600B467B800023FB6000237B610023C2
:102A5000BB600023FB747B88DBB25B09DBB2BB602D
:102A60007B8803F01F037B6101227B6902FA03F379
:102A70007B61BB68012B07D17B689B899BB21A469F
:102A80007B6913407B6111E0BB68022B07D17B6837
:102A90001B8A9BB21A467B6913407B6106E07B6808
:102AA0009B8A9BB21A467B6913407B617B881B0A19
:102AB0009BB2FB600122FB6802FA03F3FB607B68B8
:102AC0001B889BB21A46FB681340FB607B69002B96
:102AD00005D0FB68002B02D00123FB7401E000232A
:102AE000FB74FB7C18461C37BD465DF8047B7047C1
:102AF00080B485B000AF78600023FB600EE07B6897
:102B000003F00103002B01D0002200E0094A7B689A
:102B10005B0853407B60FB680133FB60FB68072B5D
:102B2000EDD97B6883F07F4318461437BD465DF8C6
:102B3000047B70472083B8ED80B582B000AF0023DE
:102B40007B600AE07868FFF7D3FF024608497B689C
:102B500041F823207B6801337B607B68FF2BF1D930
:102B6000044B01221A7000BF0837BD4680BD00BF6C
:102B7000801300207C13002080B586B000AFF86081
:102B8000B9607A60124B1B78002B01D1FFF7D4FF9C
:102B900000237B6112E0FB68DAB2B9687B690B4401
:102BA0001B785340DBB21A460A4B53F82220FB68CD
:102BB0001B0A5340FB607B6901337B617A697B6848
:102BC0009A42E8D3FB6818461837BD4680BD00BF5F
:102BD0007C1300208013002080B483B000AF00235A
:102BE000FB71FB7918460C37BD465DF8047B7047D6
:102BF00080B500AF00210448FFF768FE0248FFF7E8
:102C00001FFD00BF80BD00BF0010014080B584B033
:102C100000AF7860396040211548FFF7FDFE0023C2
:102C2000FB6013E000BF80211148FFF7D9FE034687
:102C3000002BF8D07A68FB6813441B789BB21946C6
:102C40000B48FFF763FEFB680133FB60FA683B68E3
:102C50009A42E7D300BF40210548FFF7C1FE034673
:102C6000002BF8D100BF00BF1037BD4680BD00BFAC
:102C70000010014080B400AF00BFBD465DF8047B8A
:102C8000704780B400AF00BFBD465DF8047B70475D
:102C900080B500AFFEF780FF03461A46034904489B
:102CA00000F0C6FE024B184680BD00BF084A00086F
:102CB0008017002080B400AF024B1846BD465DF877
:102CC000047B7047104A000880B400AF024B1846DE
:102CD000BD465DF8047B7047104A000880B582B09D
:102CE00000AF0023FB71144B93F8F030002B01D0A0
:102CF000FB791DE0FFF770FF0346FB71FB79002BAA
:102D000001D0FB7914E0012000F0F6FC0A4B002210
:102D100083F8F320084B002283F8F420052000F00C
:102D2000CFF800F035F9044B012283F8F020FB794D
:102D300018460837BD4680BDA017002080B500AFFB
:102D4000084B93F8F03083F00103DBB2002B06D17F
:102D5000FFF74EFF034B002283F8F02000E000BF96
:102D600080BD00BFA017002080B584B004AF0D4B1C
:102D700093F8F03083F00103DBB2002B0FD1012078
:102D800000F01CF8084B0293084B0193F6230093C4
:102D9000074B084A0849032000F0A6F900E000BFED
:102DA000BD4680BDA0170020544A00085C4A0008B8
:102DB0003C4F00082C4A00084C4A000880B588B0F7
:102DC00006AF0346FB71FB79002B23D0FB7983F020
:102DD0000103DBB2002B1DD0124B1B68002B12D15C
:102DE00040F215130493104B0393104B0293104BB6
:102DF000019340F2151300930B4B0E4A0E4900202D
:102E000000F072F9FEE7074B1B6840F21512064905
:102E100006489847094AFB7982F8F13000BF083725
:102E2000BD4680BD981C0020484F0008AC4A0008F1
:102E3000D44A00082C4A00084C4A0008A017002079
:102E400080B588B006AF03463960FB71FB79052B6E
:102E50001DD9144B1B68002B12D14FF4A07304939F
:102E6000114B0393114B0293114B01934FF4A07339
:102E700000930D4B0F4A1049002000F035F9FEE792
:102E8000084B1B684FF4A072074908489847FB7924
:102E90000A4936333A6841F8232000BF0837BD4657
:102EA00080BD00BF981C0020604F0008F84A000851
:102EB000D44A00082C4A00084C4A0008A0170020F9
:102EC00080B588B006AF0346FB71FB79052B1DD991
:102ED000124B1B68002B12D14FF4AD730493104BAF
:102EE0000393104B0293104B01934FF4AD73009377
:102EF0000B4B0E4A0E49002000F0F6F8FEE7074B98
:102F00001B684FF4AD72064906489847094AFB7999
:102F1000137000BF0837BD4680BD00BF981C00205D
:102F2000704F0008F84A0008D44A00082C4A0008EC
:102F30004C4A0008A017002080B500AF084B93F85A
:102F4000F230002B06D0FFF795FE054B012283F8E7
:102F5000F42003E0024B012283F8F32000BF80BD80
:102F6000A017002080B500AF084B93F8F230002B7B
:102F700006D0FFF786FE054B002283F8F42003E01D
:102F8000024B002283F8F32000BF80BDA017002071
:102F900080B582B000AF0023FB710023FB7121E0FC
:102FA000FA7913465B0113443033124A1344023357
:102FB0001F220021184600F0FEFCFA790D49134645
:102FC0005B0113440B44313300221A70FA7909492A
:102FD00013465B0113440B44513300221A70FB79F2
:102FE0000133FB71FB79042BDAD900BF00BF08372E
:102FF000BD4680BDA017002080B58AB006AF7860BE
:103000007B68002B1DD1314B1B68002B12D14FF474
:10301000F07304932E4B03932E4B02932E4B01938C
:103020004FF4F07300932A4B2C4A2D49002000F0F6
:103030005BF8FEE7254B1B684FF4F07224492548E6
:1030400098470023FB730523BB73264B93F8F0309E
:1030500083F00103DBB2002B01D0BB7B31E0FFF733
:103060006BFF0023FB7326E0FA7B1E4913465B01CE
:1030700013440B4451331B78002B19D0FA7B1346B1
:103080005B0113443033174A134402331E2219469E
:10309000786800F0EDFC0346002B09D1FA7B11495A
:1030A00013465B0113440B4431331B78BB7305E0BB
:1030B000FB7B0133FB73FB7B042BD5D9FFF752FF5E
:1030C000BB7B18461037BD4680BD00BF981C002052
:1030D000844F0008144B0008D44A00082C4A00080A
:1030E0004C4A0008A017002090B597B006AFB96011
:1030F0007A603B600346FB73B868FDF7B9F8B863C4
:103100000023FB631448FDF7B3F878630023BB6228
:103110000023BB850023BB6107F11C0300221A605A
:103120005A609A60FB7B052B2BD90C4B1B68002B3C
:1031300020D140F23E230493094B0393094B0293A1
:10314000094B019340F23E230093054B074A08497F
:103150000020FFF7C9FFFEE7284B0008981C00205D
:103160009C4F0008F84A0008D44A00082C4A00087E
:103170004C4A0008AE4B1B6840F23E22AD49AE48B7
:103180009847AE4B93F8F13083F00103DBB2002B8C
:1031900040F01E82A94B1B78FA7B9A4200F21A82F9
:1031A000B868FFF729FF03461A46FB7B934200F2FB
:1031B0001182A349B86800F06FFC0346002B00F0B1
:1031C0000B8207F158037B61FFF7B6FEFB7B012101
:1031D000184600F013FA0346002B0ED0FB6B994AF9
:1031E0009918FB7B984A52F823301A46F86B00F086
:1031F000B7FA0246FB6B1344FB63FB7B02211846C4
:1032000000F0FCF90346002B30D0FB6B8D4A1344D1
:10321000BA681946F86B00F0A3FA0246FB6B134438
:10322000FB63BB6B0F2B15D8BB6BC3F10F0207F110
:1032300018032021184600F0BEFBFB6B814A1344A3
:1032400007F118021946F86B00F08AFA0246FB6B88
:103250001344FB63FB6B7B4A13447C4A1946F86BAF
:1032600000F07EFA0246FB6B1344FB63FB7B1C21E0
:10327000184600F0C3F90346002B00F08580FB6B75
:10328000704A1344724A1946F86B00F069FA024614
:10329000FB6B1344FB63FB7B0421184600F0AEF983
:1032A0000346002B22D0FB6B664A9C18FFF7F0FC0C
:1032B00003461A462146F86B00F052FA0246FB6BB1
:1032C0001344FB63FB7B1821184600F097F9034673
:1032D000002B0BD0FB6B5B4A13445C4A1946F86B1E
:1032E00000F03EFA0246FB6B1344FB63FB7B0821B4
:1032F000184600F083F90346002B22D0FB6B514A9D
:103300009C18FFF7D7FC03461A462146F86B00F0DD
:1033100027FA0246FB6B1344FB63FB7B1021184624
:1033200000F06CF90346002B0BD0FB6B454A1344AD
:10333000464A1946F86B00F013FA0246FB6B134439
:10334000FB63FB7B1021184600F058F90346002B65
:103350000ED0FB6B3B4A9C18FFF7B6FC03461A469F
:103360002146F86B00F0FCF90246FB6B1344FB634B
:10337000FB6B344A1344374A1946F86B00F0F0F9F6
:103380000246FB6B1344FB63FB7B7A6820211846E3
:1033900000F096F90346002B12D1FB7B3A684021DE
:1033A000184600F08DF90346002B09D13A6DFB7BDE
:1033B0008021184600F068F90346002B00F0B88021
:1033C000FB6B204A1344244A1946F86B00F0C8F9F5
:1033D0000246FB6B1344FB63FB7B7A682021184693
:1033E00000F06EF90346002B4FD0FB6B154A1344D7
:1033F0007A681946F86B00F0B3F90246FB6B134488
:10340000FB63FB7B3A684021184600F059F90346FC
:10341000002B25D0FB6B0B4A1344104A1946F86B5E
:1034200000F09EF90246FB6B1344FB632DE000BFE6
:10343000981C00209C4F0008F84A0008A0170020A4
:10344000A117002098180020240000202C4B000811
:10345000304B0008344B0008384B00083C4B000848
:103460003A6DFB7B8021184600F00EF90346002BD5
:103470000BD0FB6B5A4A13445A4A1946F86B00F0BA
:103480006FF90246FB6B1344FB633A6DFB7B8021B3
:10349000184600F0F9F80346002B28D007F1280061
:1034A0003B6D514A052100F08FFAFB6B4C4A1344E7
:1034B00007F128021946F86B00F052F90246FB6B3F
:1034C0001344FB63FB7B3A684021184600F0F8F890
:1034D0000346002B0BD0FB6B414A1344414A19466B
:1034E000F86B00F03DF90246FB6B1344FB63FB7B7A
:1034F0003A684021184600F0E3F80346002B0BD051
:10350000FB6B374A13443A681946F86B00F028F908
:103510000246FB6B1344FB63FB6B314A1344334A93
:103520001946F86B00F01CF90246FB6B1344FB6371
:10353000FB6B2B4A9818FB6BC3F580617B697A6D36
:1035400000F0ECFA38633A6BFB6B1344B3F5806F11
:1035500007D83B6B002B04DB3B6BFA6B1344FB631C
:1035600002E04FF48063FB63FA6B7B6B1344B3F5AB
:10357000806F06D94FF48063FB63FA6B7B6BD31AC1
:10358000FB631B4B93F82030002B0ED0144AFB6BCF
:10359000134400221A701749114800F07DFA0346BF
:1035A000002B02D1FFF7DEFC17E0FB6B0C4A134443
:1035B000114A1946F86B00F0D3F80246FB6B13442E
:1035C000FB63F96B0648FFF721FBFFF7CBFC04E038
:1035D00000BF02E000BF00E000BF4437BD4690BD21
:1035E000981800202C4B0008404B0008444B000862
:1035F000A0170020C0170020284B000880B588B015
:1036000006AF03463960FB71FB79052B1DD9174BBB
:103610001B68002B12D140F2DF230493144B039359
:10362000144B0293144B019340F2DF230093104B91
:10363000124A13490020FFF757FDFEE70B4B1B68AA
:1036400040F2DF220A490B489847FB790D4A36338E
:1036500052F823203B681340002B01D0012300E0E7
:10366000002318460837BD4680BD00BF981C0020C7
:10367000A84F0008F84A0008D44A00082C4A00085D
:103680004C4A0008A017002080B584B000AF034664
:10369000B9607A60FB737B68002B09D0FB7BB9684B
:1036A0001846FFF7ABFF0346002B01D0012300E0D3
:1036B000002303F00103DBB218461037BD4680BD7E
:1036C00080B584B000AF0346B9607A60FB737B6855
:1036D000002B09D0FB7BB9681846FFF78FFF034624
:1036E000002B01D0012300E0002303F00103DBB233
:1036F00018461037BD4680BD80B582B000AF034686
:10370000FB71164AFB7982F8F230144B93F8F230D1
:10371000002B1ED0114B93F8F43083F00103DBB281
:10372000002B07D00D4B93F8F330002B02D0FFF79E
:10373000A1FA0EE0094B93F8F430002B09D0074BA7
:1037400093F8F33083F00103DBB2002B01D0FFF7D5
:1037500098FA00BF0837BD4680BD00BFA017002003
:1037600080B58CB006AFF860B9607A607B687B6129
:10377000BB68002B1AD12A4B1B68002B10D12C23BD
:103780000493284B0393284B0293284B01932C233B
:103790000093244B264A27490020FFF7A5FCFEE7AB
:1037A0001F4B1B682C221F491F4898477B68002B22
:1037B00029D11B4B1B68002B10D12D230493194BCF
:1037C00003931D4B0293194B01932D230093154B2B
:1037D000174A18490020FFF787FCFEE7104B1B68CB
:1037E0002D221049144898470DE0FB685A1CFA60D6
:1037F000B3F5806F0CD27A68531C7B60BB68591C90
:10380000B96012781A707B681B78002BEDD100E04C
:1038100000BF7A687B69D31A18461837BD4680BD49
:10382000981C0020B84F0008384D00083C4D000897
:10383000084D0008304D0008604D000880B485B088
:1038400000AF786039607B68FB603B68A3F10C02D5
:10385000FB689A60FB6818461437BD465DF8047B28
:10386000704780B483B000AF78607B685B685A1C97
:103870007B689B689A4205D27B685B689BB2013388
:103880009BB200E0002318460C37BD465DF8047B70
:10389000704780B483B000AF78607B681B685A1CA7
:1038A0007B689B689A4205D27B681B689BB2013398
:1038B0009BB200E0002318460C37BD465DF8047B40
:1038C000704780B483B000AF78607B685A687B68CB
:1038D0001B689A420CBF01230023DBB218460C3749
:1038E000BD465DF8047B704780B582B000AF78605C
:1038F0000B46FB707868FFF7B4FF03461A467B68F7
:103900001B689A4201D100230DE07B685B687A68EE
:103910001344FA781A737868FFF7A3FF03461A4630
:103920007B685A60012318460837BD4680BD80B5C4
:1039300086B000AFF860B9607A600123FB750023A0
:10394000BB820CE0BB8ABA6813441B781946F8683E
:10395000FFF7CAFF0346FB75BB8A0133BB82BB8AF4
:103960007A689A4202D9FB7D002BEBD1FB7D184689
:103970001837BD4680BD80B582B000AF7860396031
:103980007B685A687B681B689A4201D100230EE06D
:103990007B681B687A6813441A7B3B681A707868E6
:1039A000FFF777FF03461A467B681A600123184623
:1039B0000837BD4680BD02440346934200D170479C
:1039C00003F8011BF9E700000CB430B5174B0C1ECF
:1039D0001D689DB008DA8B232B604FF0FF301DB0BF
:1039E000BDE8304002B070474FF40273ADF81430B8
:1039F00014BF04F1FF332346049307934FF6FF737C
:103A000002900690ADF81630209A21AB02A9284604
:103A1000019300F0EDF8431CBCBF8B232B60002CFE
:103A2000DDD0029B00221A70D9E700BF3C000020C5
:103A30000EB400B59CB01DAB029006906FF0004133
:103A4000094807910491094953F8042B059100682E
:103A5000019302A900F0CCF8029B00221A701CB05E
:103A60005DF804EB03B070473C0000200802FFFF44
:103A700010B57AB103460139841813F8010B11F817
:103A8000012F904201D1A34201D1801A10BD00281C
:103A9000F3D1FAE71046F9E70A7870B56AB970BD54
:103AA0009A4209D10C46054614F8013F002BF6D086
:103AB00015F8016F9E42F7D001300378002BEFD14B
:103AC0001846ECE730B51446002C9BB005461A4664
:103AD00005DA8B2303604FF0FF301BB030BD4FF48D
:103AE0000273ADF80C3014BF04F1FF332346029388
:103AF00005934FF6FF7300910491ADF80E306946BF
:103B00001E9B00F075F8431CBCBF8B232B60002C60
:103B1000E3D0009B00221A70DFE7000007B5009396
:103B200013460A46014603480068FFF7CBFF03B07F
:103B30005DF804FB3C0000202DE9F0478E689E42B2
:103B400082460C4690461F4638D88A8912F4906FF8
:103B500032D025680969A5EB0109656905EB4505C2
:103B600005EBD57501334B446D109D4238BF1D46A2
:103B7000530531D5294600F063FB064650B90C23A6
:103B8000CAF80030A38943F04003A3814FF0FF300F
:103B9000BDE8F08721694A4600F0BEFAA38923F404
:103BA000906343F08003A381266165614E44A5EBD9
:103BB00009052660A5603E46BE4200D93E46206803
:103BC0003246414600F0B6FAA3689B1BA360236807
:103BD000334423600020DBE72A4600F0A5FB0646BD
:103BE0000028E1D12169504600F0BEFAC7E7000085
:103BF0002DE9F04F98468B891B069DB007460D4670
:103C000014460ED50B6963B9402100F019FB2860FA
:103C1000286120B90C233B604FF0FF30D1E04023F6
:103C20006B610023099320238DF82930CDF80C8097
:103C30003023DFF8A8818DF82A304FF001092346A0
:103C40009A4613F8012B0AB1252AF9D1BAEB040BD5
:103C50000BD05B46224629463846FFF76DFF013000
:103C600000F0AA80099A5A4409929AF80030002B71
:103C700000F0A28000234FF0FF32CDE905230AF1C6
:103C8000010A049307938DF853301A935446052282
:103C900014F8011B5148FCF79BFA049AD8B9D006D6
:103CA00044BF20238DF85330110744BF2B238DF8D8
:103CB00053309AF800302A2B15D0079A544600202A
:103CC0004FF00A0C214611F8013B303B092B4ED92D
:103CD000B0B1079214E0A0EB080309FA03F3134311
:103CE0000493A246D2E7039B191D1B680391002B86
:103CF000BBBF5B4242F0020207930793B8BF049236
:103D000023782E2B0CD163782A2B35D1039B1A1DD7
:103D10001B680392002BB8BF4FF0FF3302340593AA
:103D2000DFF8C8A0217803225046FCF751FA40B1D1
:103D30004023A0EB0A0003FA00F0049B0343013484
:103D4000049314F8011B26488DF828100622FCF76E
:103D50003FFA002838D0234B1BBB039B073323F0CB
:103D6000070308330393099B3344099367E70CFB6C
:103D700002320C460120A5E70023013405931946C1
:103D80004FF00A0C204610F8012B303A092A03D9CB
:103D9000002BC5D00591C3E70CFB0121044601238C
:103DA000F0E703AB00932A460F4B04A93846AFF364
:103DB0000080421C0646D6D1AB895B063FF52CAF8E
:103DC00009981DB0BDE8F08F03AB00932A46064B5F
:103DD00004A9384600F07AF8EBE700BFC44F0008AA
:103DE000CE4F000800000000393B0008CA4F000811
:103DF0002DE9F047164699468A680B69DDF8208060
:103E00009342B8BF1346336091F8432007460C46EF
:103E10000AB1013333602368990642BF3368023325
:103E20003360256815F0060506D104F1190AE36828
:103E300032689B1AAB4226DC94F84320131E22689A
:103E400018BF012392062BD404F143024946384699
:103E5000C04701301ED02368E568326803F00603CE
:103E6000042B08BFAD1AA36822690CBF25EAE575CB
:103E700000259342C4BF9B1AED1800261A34B542A0
:103E80001AD1002008E00123524649463846C0476F
:103E9000013003D14FF0FF30BDE8F0870135C6E7B0
:103EA000E1185A1C302081F84300224494F8451050
:103EB00082F843100233C7E70123224649463846B9
:103EC000C0470130E6D00136D9E700002DE9FF47B1
:103ED0000F7E0C9D782F914680460C469A4601F144
:103EE000430207D8622F0AD8002F00F0D880582F3D
:103EF00000F0A38004F1420584F842703AE0A7F193
:103F00006303152BF6D801A151F823F0653F000893
:103F1000793F0008F53E0008F53E0008F53E000830
:103F2000F53E0008793F0008F53E0008F53E000820
:103F3000F53E0008F53E000885400008A93F00084E
:103F400067400008F53E0008F53E0008A74000085D
:103F5000F53E0008A93F0008F53E0008F53E0008C0
:103F60006F4000082B681A1D1B682A6004F1420587
:103F700084F842300123A3E020682968060601F195
:103F800004030AD50E682B60002E03DA2D23764237
:103F900084F843305E480A2319E00E682B6010F065
:103FA000400F18BF36B2EFE72B682068191D296053
:103FB000010601D51E6802E04606FBD51E8854485E
:103FC0006F2F0CBF08230A23002184F84310656873
:103FD000A560002DA2BF216821F0040121600EB967
:103FE000002D4DD01546B6FBF3F103FB1167C75DFD
:103FF00005F8017D3746BB420E46F4D9082B0BD19C
:104000002368DE0708D5236961689942DEBF302343
:1040100005F8013C05F1FF35521B2261CDF800A0E7
:104020004B4603AA21464046FFF7E2FE01304CD141
:104030004FF0FF3004B0BDE8F087354881F8457097
:104040002968236851F8046B29601D0614D5DF0721
:1040500044BF43F0200323601EB9236823F02003EC
:1040600023601023B0E7236843F020032360782304
:10407000284884F84530E3E7590648BFB6B2E6E77A
:104080001546BBE72B6826686169181D2860350650
:104090001B6801D5196002E07006FBD5198000236A
:1040A00023611546BAE72B681A1D2A601D686268ED
:1040B00000212846FCF78CF808B1401B606063685B
:1040C0002361002384F84330A8E723692A46494640
:1040D0004046D0470130ABD023689B0713D4E0683B
:1040E000039B9842B8BF1846A4E7012332464946CD
:1040F0004046D04701309BD00135E36803995B1AF5
:10410000AB42F2DCEBE7002504F11906F5E700BF4E
:10411000D54F0008E64F00080A44914200F1FF33F2
:1041200000D1704710B511F8014B03F8014F9142CF
:10413000F9D110BD884210B501EB020402D98442C6
:10414000234607D8431EA14208D011F8012B03F8DB
:10415000012FF8E7024401468A4200D110BD13F84E
:10416000014D02F8014DF7E737B5002944D051F869
:10417000043C0190002BA1F10404B8BFE41800F046
:1041800013F91E4A0198136833B96360146003B0D1
:10419000BDE8304000F00EB9A34208D92568611986
:1041A0008B4201BF19685B6849192160EDE71A4627
:1041B0005B680BB1A342FAD911685518A5420BD11F
:1041C000246821445418A3421160E0D11C685B6844
:1041D000536021441160DAE702D90C230360D6E76B
:1041E000256861198B4204BF19685B68636004BF6E
:1041F000491921605460CAE703B030BD9C1C0020FF
:1042000070B50E4E0C463168054611B900F0BCF889
:1042100030602146284600F0B7F8431C0AD0C41C81
:1042200024F00304A04207D0211A284600F0ACF87D
:10423000013001D14FF0FF34204670BDA01C00209A
:104240002DE9F041CD1C25F0030508350C2D38BFB4
:104250000C25002D074601DBA94205D90C233B6044
:1042600000263046BDE8F0812E4E00F09DF8336800
:104270001C4634BB29463846FFF7C2FF431C0446A0
:104280004DD134682646002E40D123683146384649
:1042900004EB030800F078F880453AD12168033533
:1042A0006D1A25F0030508350C2D38BF0C2529465D
:1042B0003846FFF7A5FF01302BD023682B4423603D
:1042C0000EE02268521B1ED40B2A16D96119A34294
:1042D000256018BF5960636808BF316062514B6048
:1042E000384604F10B0600F065F826F00706231D9A
:1042F000F21AB6D09B1BA350B3E76268A3420CBF6F
:1043000032605A60ECE723466468B2E73446766868
:10431000B9E70C233B60384600F04CF8A1E7256074
:10432000DEE700BF9C1C00202DE9F04180461446CA
:104330000E4621B9BDE8F0411146FFF781BF2AB909
:10434000FFF712FF25462846BDE8F08100F038F857
:104350008442074602D8B4EB500F12D8214640469B
:10436000FFF76EFF05460028EDD0BC4222463146DD
:1043700028BF3A46FFF7D0FE31464046FFF7F4FE2D
:10438000E1E73546DFE7000038B5064D0023044677
:1043900008462B60FDF7E0F8431C02D12B6803B1FF
:1043A000236038BDA41C0020014800F011B800BFF4
:1043B000A81C0020014800F00CB800BFA81C002079
:1043C00051F8043C181F002BBCBF0B58C018704795
:1043D00070477047F8B500BFF8BC08BC9E467047F0
:0C43E000F8B500BFF8BC08BC9E46704752
:1043EC00626F6F742F626F6F746C6F6465722E6383
:1043FC0000000000626F6F74000000004E6F2076AA
:10440C00616C6964206261636B7570204352432058
:10441C0073746F726564000053746F72656420432B
:10442C0052433A203078253038582C20416374752B
:10443C00616C204352433A203078253038580000C4
:10444C00696E7175697279006C656E677468206449
:10445C0069736D6174636820256420213D20256497
:10446C0000000000737562636F6465203D20253089
:10447C0032780000726573657400000065726173B8
:10448C00650000006C656E677468206469736D610B
:10449C0074636820256420213D2564006164647286
:1044AC00203D20307825303878206973206E6F7469
:1044BC002070726F7465637465640000616464726B
:1044CC003D3078253038782C73697A653D30782505
:1044DC00303878006261636B757020737563636547
:1044EC00737366756C0000006261636B7570206697
:1044FC0061696C6564000000777269746500000086
:10450C006C656E677468206469736D617463682090
:10451C003078253032782C30782530327800000015
:10452C006164647265737320307825303858206963
:10453C00732070726F74656374656400777269744C
:10454C006520696E203078253038782C73697A654F
:10455C00203D203078253032780000007665726975
:10456C00667900006C656E677468206D69736D61A7
:10457C0074636820256420213D2025640000000020
:10458C00766572696679203078253038582C20731E
:10459C00697A65202564000063726320697320309A
:1045AC0078253038780000004261636B75702061AB
:1045BC007661696C61626C652E20456E74657269FA
:1045CC006E67207265636F76657279206D6F6465B6
:1045DC002E0000006F70636F6465203D20307825DD
:1045EC00303278206C656E677468203D20307825F9
:1045FC0030327800736D2069646C6500736D5F7385
:10460C007461727400000000736D5F6F70636F648F
:10461C0065000000736D5F435243000063726320BA
:10462C006469736D61746368000000004D61696EAC
:10463C00206170706C69636174696F6E20696E764D
:10464C00616C69642C20627574206261636B757097
:10465C0020617661696C61626C650000426F6F74F9
:10466C007374726170206D6F646520506C6561733A
:10467C006520707265737320746865207468726548
:10468C00652D7365636F6E6420627574746F6E0054
:10469C00627574746F6E2070726573736564206FCD
:1046AC007665722033207363656F6E64730000004F
:1046BC00726573746F72656420737563636573736D
:1046CC002072657365740000726573746F72656433
:1046DC00206661696C656400626F6F7420696E207E
:1046EC002564207365636F6E647300006275747467
:1046FC006F6E207072657373656420726573657478
:10470C003100000074696D65206F75740000000045
:10471C00637263206D69736D617463683A20253030
:10472C00385820213D20253038580000626F6F74B6
:10473C00696E67206170706C69636174696F6E205B
:10474C006174203078253038580000004572617350
:10475C00696E67206261636B7570206172656120A0
:10476C0028307825303858202D203078253038588E
:10477C002900000077726974652064617461206699
:10478C0061696C65642C20616464723A2030782510
:10479C0030387800566572696679696E6720626197
:1047AC00636B75702E2E2E00417070204352433A6D
:1047BC0020307825303858004261636B7570204387
:1047CC0052433A2030782530385800004261636BF0
:1047DC0075702076657269666965642073756363AC
:1047EC0065737366756C6C7920284352433A20309C
:1047FC0078253038582900004261636B757020763B
:10480C006572696669636174696F6E206661696C53
:10481C0065642120417070204352433A2030782542
:10482C003038582C204261636B7570204352433AE8
:10483C002030782530385800626F6F742F6D6169A5
:10484C006E2E63006D61696E0000000062757474F9
:10485C006F6E2070726573736564207475726E2050
:10486C00746F20626F6F746C6F646572210000004E
:10487C006170706C69636174696F6E2076657269C2
:10488C006679206661696C65642C20747261702095
:10489C00696E746F20626F6F74000000626F6F74CA
:1048AC002F6E6F72666C6173682E6300666C617339
:1048BC0068000000666C61736820756E6C6F636BCA
:1048CC0000000000666C617368206C6F636B000005
:1048DC00657261736520736563746F722025752C26
:1048EC0020616464723A203078253038782C20733B
:1048FC00697A653A20257500657261736520736568
:10490C0063746F72202575206661696C65640000A4
:10491C0077726974652064617461206661696C6585
:10492C00642C20616464723A203078253038780029
:10493C0045726173696E67206261636B757020618B
:10494C007265612028307825303858202D20307839
:10495C002530385829000000566572696679696EF1
:10496C0067206261636B75702E2E2E004170702073
:10497C004352433A20307825303858004261636BFB
:10498C007570204352433A20307825303858000057
:10499C004261636B75702076657269666965642027
:1049AC007375636365737366756C6C7920284352F9
:1049BC00433A203078253038582900004261636B27
:1049CC00757020766572696669636174696F6E20B3
:1049DC006661696C65642120417070204352433AD2
:1049EC00203078253038582C204261636B7570204C
:1049FC004352433A20307825303858002530366CF5
:104A0C007500000000000000412F0000452F000041
:104A1C00572F0000492F0000442F0000562F000094
:104A2C0074686972645F6C69622F656173796C6F0D
:104A3C00676765722F7372632F656C6F672E6300E7
:104A4C00656C6F6700000000322E322E3939000081
:104A5C00456173794C6F67676572205625732069C1
:104A6C007320696E697469616C697A65207375630A
:104A7C00636573732E000000456173794C6F676733
:104A8C00657220562573206973206465696E69749C
:104A9C0069616C697A6520737563636573732E0045
:104AAC0028656E61626C6564203D3D2066616C73A7
:104ABC006529207C7C2028656E61626C6564203DD4
:104ACC003D2074727565290028257329206861734F
:104ADC0020617373657274206661696C6564206112
:104AEC00742025733A256C642E0000006C65766585
:104AFC006C203C3D20454C4F475F4C564C5F564517
:104B0C0052424F534500000074616720213D20281C
:104B1C0028766F6964202A29302900000D0A0000CC
:104B2C00200000005B0000005D2000002800000059
:104B3C003A000000256C6400290000006C6F6700CF
:104B4C00656C6F672E656E61626C65645F666D7413
:104B5C005F7365745B454C4F475F4C564C5F4153DC
:104B6C00534552545D202620454C4F475F464D54CB
:104B7C005F4C564C00000000656C6F672E656E61D3
:104B8C00626C65645F666D745F7365745B454C4FF6
:104B9C00475F4C564C5F4552524F525D2026204584
:104BAC004C4F475F464D545F4C564C00656C6F67DD
:104BBC002E656E61626C65645F666D745F7365749F
:104BCC005B454C4F475F4C564C5F5741524E5D20F6
:104BDC002620454C4F475F464D545F4C564C0000C9
:104BEC00656C6F672E656E61626C65645F666D7473
:104BFC005F7365745B454C4F475F4C564C5F494E39
:104C0C00464F5D202620454C4F475F464D545F4C28
:104C1C00564C0000656C6F672E656E61626C656446
:104C2C005F666D745F7365745B454C4F475F4C56A4
:104C3C004C5F44454255475D202620454C4F475F0D
:104C4C00464D545F4C564C00656C6F672E656E611B
:104C5C00626C65645F666D745F7365745B454C4F25
:104C6C00475F4C564C5F564552424F53455D20268C
:104C7C0020454C4F475F464D545F4C564C0000004E
:104C8C007461675F6C656E006C766C203C20454CE3
:104C9C004F475F4C564C5F544F54414C5F4E554DF3
:104CAC0000000000656C6F672E656E61626C656458
:104CBC005F666D745F7365745B6C766C5D2026202B
:104CCC00454C4F475F464D545F5441470000000030
:104CDC00442F4845582025733A20253034582D252B
:104CEC003034583A200000002530325820000000A3
:104CFC0020202000202000002563000074686972C9
:104D0C00645F6C69622F656173796C6F676765723C
:104D1C002F7372632F656C6F675F7574696C2E638C
:104D2C0000000000656C6F67000000006473740085
:104D3C002825732920686173206173736572742050
:104D4C006661696C65642061742025733A256C6416
:104D5C002E000000737263000D0A00006C696E6512
:104D6C00000000006C6F67006261636B75705F76AA
:104D7C006572696679000000626C5F6F705F696EC6
:104D8C0071756972795F68616E646C6572000000A0
:104D9C00626C5F6F705F626F6F745F68616E646C82
:104DAC0065720000626C5F6F705F72657365745F33
:104DBC0068616E646C657200626C5F6F705F6572C7
:104DCC006173655F68616E646C657200626C5F6FC5
:104DDC00705F77726974655F68616E646C65720090
:104DEC00626C5F6F705F7665726966795F68616E21
:104DFC00646C657200000000626C5F70746B5F68BD
:104E0C00616E646C65000000626C5F726563765F56
:104E1C0068616E646C657200626F6F746C6F646550
:104E2C00720000007665726966795F6170706C69FA
:104E3C00636174696F6E00006170706C696361749A
:104E4C00696F6E5F626F6F74000000006170705F5D
:104E5C0072657374726F6564000000006D61696E39
:104E6C0000000000000000000040000008000000EE
:104E7C00004000001000000000400000180000007E
:104E8C00004000002000000000000100280000008D
:104E9C00000002003000000000000200380000009A
:104EAC00000002004000000000000200480000006A
:104EBC00000002005000000000000200580000003A
:104ECC0000000200626C5F6E6F72666C6173685FEB
:104EDC00756E6C6F636B0000626C5F6E6F72666CEC
:104EEC006173685F6C6F636B00000000626C5F6ED7
:104EFC006F72666C6173685F657261736500000048
:104F0C00626C5F6E6F72666C6173685F77726974E6
:104F1C0065000000626C5F6E6F72666C6173685F37
:104F2C0077726974655F6261636B75700000000075
:104F3C00656C6F675F73746172740000656C6F678A
:104F4C005F7365745F6F75747075745F656E6162A5
:104F5C006C656400656C6F675F7365745F666D7418
:104F6C0000000000656C6F675F7365745F66696C49
:104F7C007465725F6C766C00656C6F675F676574E7
:104F8C005F66696C7465725F7461675F6C766C00E8
:104F9C00656C6F675F6F7574707574006765745FAF
:104FAC00666D745F656E61626C656400656C6F67DD
:104FBC005F73747263707900232D302B2000686C42
:104FCC004C00656667454647003031323334353620
:104FDC003738394142434445460030313233343559
:0C4FEC0036373839616263646566000086
:044FF800B5010008F7
:044FFC009101000817
:10500000007A030A0000000000000000010203040F
:10501000060708090000000001020304010203045E
:1050200006070809144A0008184A00081C4A000824
:10503000204A0008244A0008284A000840000020AE
:105040000000000000000000000000000000000060
:105050000000000000000000000000000000000050
:105060000000000000000000000000000000000040
:105070000000000000000000000000000000000030
:105080000000000000000000000000000000000020
:105090000000000000000000000000000000000010
:0400000508001BCD07
:00000001FF
